{
  "contractName": "EventManagement",
  "abi": [
    {
      "constant": true,
      "inputs": [
        {
          "name": "",
          "type": "uint256"
        }
      ],
      "name": "events",
      "outputs": [
        {
          "name": "id",
          "type": "uint256"
        },
        {
          "name": "img_url",
          "type": "string"
        },
        {
          "name": "title",
          "type": "string"
        },
        {
          "name": "description",
          "type": "string"
        },
        {
          "name": "is_active",
          "type": "bool"
        },
        {
          "name": "ticket_price",
          "type": "uint256"
        },
        {
          "name": "organizer",
          "type": "address"
        }
      ],
      "payable": false,
      "stateMutability": "view",
      "type": "function"
    },
    {
      "anonymous": false,
      "inputs": [
        {
          "indexed": false,
          "name": "eventId",
          "type": "uint256"
        }
      ],
      "name": "EventAdded",
      "type": "event"
    },
    {
      "anonymous": false,
      "inputs": [
        {
          "indexed": false,
          "name": "eventId",
          "type": "uint256"
        }
      ],
      "name": "EventUpdated",
      "type": "event"
    },
    {
      "anonymous": false,
      "inputs": [
        {
          "indexed": false,
          "name": "eventId",
          "type": "uint256"
        },
        {
          "indexed": false,
          "name": "amount",
          "type": "uint256"
        }
      ],
      "name": "EventCutGivenToServiceProvider",
      "type": "event"
    },
    {
      "anonymous": false,
      "inputs": [
        {
          "indexed": false,
          "name": "eventId",
          "type": "uint256"
        },
        {
          "indexed": false,
          "name": "payer",
          "type": "address"
        },
        {
          "indexed": false,
          "name": "amount",
          "type": "uint256"
        }
      ],
      "name": "PaymentReceived",
      "type": "event"
    },
    {
      "constant": false,
      "inputs": [
        {
          "name": "_id",
          "type": "uint256"
        },
        {
          "name": "_img_url",
          "type": "string"
        },
        {
          "name": "_title",
          "type": "string"
        },
        {
          "name": "_description",
          "type": "string"
        },
        {
          "name": "_is_active",
          "type": "bool"
        },
        {
          "name": "_ticket_price",
          "type": "uint256"
        },
        {
          "name": "_organizer",
          "type": "address"
        }
      ],
      "name": "addEvent",
      "outputs": [],
      "payable": false,
      "stateMutability": "nonpayable",
      "type": "function"
    },
    {
      "constant": true,
      "inputs": [],
      "name": "getLatestEventId",
      "outputs": [
        {
          "name": "_id",
          "type": "uint256"
        }
      ],
      "payable": false,
      "stateMutability": "view",
      "type": "function"
    },
    {
      "constant": true,
      "inputs": [],
      "name": "getNextAvailableEventId",
      "outputs": [
        {
          "name": "_id",
          "type": "uint256"
        }
      ],
      "payable": false,
      "stateMutability": "view",
      "type": "function"
    },
    {
      "constant": true,
      "inputs": [
        {
          "name": "_id",
          "type": "uint256"
        }
      ],
      "name": "getEventDetails",
      "outputs": [
        {
          "name": "img_url",
          "type": "string"
        },
        {
          "name": "title",
          "type": "string"
        },
        {
          "name": "description",
          "type": "string"
        },
        {
          "name": "is_active",
          "type": "bool"
        },
        {
          "name": "ticket_price",
          "type": "uint256"
        },
        {
          "name": "organizer",
          "type": "address"
        }
      ],
      "payable": false,
      "stateMutability": "view",
      "type": "function"
    },
    {
      "constant": false,
      "inputs": [
        {
          "name": "_id",
          "type": "uint256"
        },
        {
          "name": "_img_url",
          "type": "string"
        },
        {
          "name": "_title",
          "type": "string"
        },
        {
          "name": "_description",
          "type": "string"
        },
        {
          "name": "_is_active",
          "type": "bool"
        },
        {
          "name": "_ticket_price",
          "type": "uint256"
        }
      ],
      "name": "updateEvent",
      "outputs": [],
      "payable": false,
      "stateMutability": "nonpayable",
      "type": "function"
    },
    {
      "constant": false,
      "inputs": [
        {
          "name": "_eventId",
          "type": "uint256"
        }
      ],
      "name": "payForEvent",
      "outputs": [],
      "payable": true,
      "stateMutability": "payable",
      "type": "function"
    }
  ],
  "bytecode": "0x60806040527302beb021529d9c4fe227111ebc56e96d26c100606000806101000a81548173ffffffffffffffffffffffffffffffffffffffff021916908373ffffffffffffffffffffffffffffffffffffffff1602179055506014600155600060025534801561006e57600080fd5b506111db8061007e6000396000f3fe608060405260043610610083576000357c0100000000000000000000000000000000000000000000000000000000900463ffffffff1680630b791430146100885780631c56ce0814610260578063517de04b1461028b578063ac59e104146103db578063b0d13da61461054b578063ea42e48614610576578063ec38d5a0146105a4575b600080fd5b34801561009457600080fd5b506100c1600480360360208110156100ab57600080fd5b8101908080359060200190929190505050610775565b60405180888152602001806020018060200180602001871515151581526020018681526020018573ffffffffffffffffffffffffffffffffffffffff1673ffffffffffffffffffffffffffffffffffffffff16815260200184810384528a818151815260200191508051906020019080838360005b83811015610151578082015181840152602081019050610136565b50505050905090810190601f16801561017e5780820380516001836020036101000a031916815260200191505b50848103835289818151815260200191508051906020019080838360005b838110156101b757808201518184015260208101905061019c565b50505050905090810190601f1680156101e45780820380516001836020036101000a031916815260200191505b50848103825288818151815260200191508051906020019080838360005b8381101561021d578082015181840152602081019050610202565b50505050905090810190601f16801561024a5780820380516001836020036101000a031916815260200191505b509a505050505050505050505060405180910390f35b34801561026c57600080fd5b506102756109ac565b6040518082815260200191505060405180910390f35b34801561029757600080fd5b506103d9600480360360c08110156102ae57600080fd5b8101908080359060200190929190803590602001906401000000008111156102d557600080fd5b8201836020820111156102e757600080fd5b8035906020019184600183028401116401000000008311171561030957600080fd5b90919293919293908035906020019064010000000081111561032a57600080fd5b82018360208201111561033c57600080fd5b8035906020019184600183028401116401000000008311171561035e57600080fd5b90919293919293908035906020019064010000000081111561037f57600080fd5b82018360208201111561039157600080fd5b803590602001918460018302840111640100000000831117156103b357600080fd5b9091929391929390803515159060200190929190803590602001909291905050506109b9565b005b3480156103e757600080fd5b50610549600480360360e08110156103fe57600080fd5b81019080803590602001909291908035906020019064010000000081111561042557600080fd5b82018360208201111561043757600080fd5b8035906020019184600183028401116401000000008311171561045957600080fd5b90919293919293908035906020019064010000000081111561047a57600080fd5b82018360208201111561048c57600080fd5b803590602001918460018302840111640100000000831117156104ae57600080fd5b9091929391929390803590602001906401000000008111156104cf57600080fd5b8201836020820111156104e157600080fd5b8035906020019184600183028401116401000000008311171561050357600080fd5b909192939192939080351515906020019092919080359060200190929190803573ffffffffffffffffffffffffffffffffffffffff169060200190929190505050610a74565b005b34801561055757600080fd5b50610560610b8e565b6040518082815260200191505060405180910390f35b6105a26004803603602081101561058c57600080fd5b8101908080359060200190929190505050610b9b565b005b3480156105b057600080fd5b506105dd600480360360208110156105c757600080fd5b8101908080359060200190929190505050610e7c565b60405180806020018060200180602001871515151581526020018681526020018573ffffffffffffffffffffffffffffffffffffffff1673ffffffffffffffffffffffffffffffffffffffff16815260200184810384528a818151815260200191508051906020019080838360005b8381101561066757808201518184015260208101905061064c565b50505050905090810190601f1680156106945780820380516001836020036101000a031916815260200191505b50848103835289818151815260200191508051906020019080838360005b838110156106cd5780820151818401526020810190506106b2565b50505050905090810190601f1680156106fa5780820380516001836020036101000a031916815260200191505b50848103825288818151815260200191508051906020019080838360005b83811015610733578082015181840152602081019050610718565b50505050905090810190601f1680156107605780820380516001836020036101000a031916815260200191505b50995050505050505050505060405180910390f35b6003602052806000526040600020600091509050806000015490806001018054600181600116156101000203166002900480601f0160208091040260200160405190810160405280929190818152602001828054600181600116156101000203166002900480156108275780601f106107fc57610100808354040283529160200191610827565b820191906000526020600020905b81548152906001019060200180831161080a57829003601f168201915b505050505090806002018054600181600116156101000203166002900480601f0160208091040260200160405190810160405280929190818152602001828054600181600116156101000203166002900480156108c55780601f1061089a576101008083540402835291602001916108c5565b820191906000526020600020905b8154815290600101906020018083116108a857829003601f168201915b505050505090806003018054600181600116156101000203166002900480601f0160208091040260200160405190810160405280929190818152602001828054600181600116156101000203166002900480156109635780601f1061093857610100808354040283529160200191610963565b820191906000526020600020905b81548152906001019060200180831161094657829003601f168201915b5050505050908060040160009054906101000a900460ff16908060050154908060060160009054906101000a900473ffffffffffffffffffffffffffffffffffffffff16905087565b6000600160025401905090565b6000600360008b8152602001908152602001600020905088888260010191906109e392919061110a565b5086868260020191906109f792919061110a565b508484826003019190610a0b92919061110a565b50828160040160006101000a81548160ff0219169083151502179055508181600501819055507f809fa27991b070f066e1b77ccff5758336645c734a13941444cc6f45daa21a898a6040518082815260200191505060405180910390a150505050505050505050565b6000600360008c815260200190815260200160002090508a81600001819055508989826001019190610aa792919061110a565b508787826002019190610abb92919061110a565b508585826003019190610acf92919061110a565b50838160040160006101000a81548160ff021916908315150217905550828160050181905550818160060160006101000a81548173ffffffffffffffffffffffffffffffffffffffff021916908373ffffffffffffffffffffffffffffffffffffffff1602179055506002600081548092919060010191905055507f9654a8734a1953da9984c9bbeb58f6188aeb4aed0e513bb9e3e6b166c9a9d97c8b6040518082815260200191505060405180910390a15050505050505050505050565b6000600160025401905090565b60006003600083815260200190815260200160002090508060040160009054906101000a900460ff161515610c38576040517f08c379a00000000000000000000000000000000000000000000000000000000081526004018080602001828103825260138152602001807f4576656e74206973206e6f74206163746976650000000000000000000000000081525060200191505060405180910390fd5b806005015434141515610cb3576040517f08c379a00000000000000000000000000000000000000000000000000000000081526004018080602001828103825260188152602001807f496e636f7272656374207061796d656e7420616d6f756e74000000000000000081525060200191505060405180910390fd5b6000610cbe346110ce565b90506000610ccb346110e7565b90508260060160009054906101000a900473ffffffffffffffffffffffffffffffffffffffff1673ffffffffffffffffffffffffffffffffffffffff166108fc839081150290604051600060405180830381858888f19350505050158015610d37573d6000803e3d6000fd5b507f4d3f6d68b42e1e039d6e7323b2b8bdeaf223f453882ce17a5984f4d6aabbdb33848460060160009054906101000a900473ffffffffffffffffffffffffffffffffffffffff1684604051808481526020018373ffffffffffffffffffffffffffffffffffffffff1673ffffffffffffffffffffffffffffffffffffffff168152602001828152602001935050505060405180910390a16000809054906101000a900473ffffffffffffffffffffffffffffffffffffffff1673ffffffffffffffffffffffffffffffffffffffff166108fc829081150290604051600060405180830381858888f19350505050158015610e36573d6000803e3d6000fd5b507fb7bd3e17274b2e65097c61227a28ae9d2b6e202e2f4609d31877790eed8ef80c8482604051808381526020018281526020019250505060405180910390a150505050565b60608060606000806000806003600089815260200190815260200160002090508060010181600201826003018360040160009054906101000a900460ff1684600501548560060160009054906101000a900473ffffffffffffffffffffffffffffffffffffffff16858054600181600116156101000203166002900480601f016020809104026020016040519081016040528092919081815260200182805460018160011615610100020316600290048015610f795780601f10610f4e57610100808354040283529160200191610f79565b820191906000526020600020905b815481529060010190602001808311610f5c57829003601f168201915b50505050509550848054600181600116156101000203166002900480601f0160208091040260200160405190810160405280929190818152602001828054600181600116156101000203166002900480156110155780601f10610fea57610100808354040283529160200191611015565b820191906000526020600020905b815481529060010190602001808311610ff857829003601f168201915b50505050509450838054600181600116156101000203166002900480601f0160208091040260200160405190810160405280929190818152602001828054600181600116156101000203166002900480156110b15780601f10611086576101008083540402835291602001916110b1565b820191906000526020600020905b81548152906001019060200180831161109457829003601f168201915b505050505093509650965096509650965096505091939550919395565b6000806110da836110e7565b9050808303915050919050565b600060015460648115156110f757fe5b048281151561110257fe5b049050919050565b828054600181600116156101000203166002900490600052602060002090601f016020900481019282601f1061114b57803560ff1916838001178555611179565b82800160010185558215611179579182015b8281111561117857823582559160200191906001019061115d565b5b509050611186919061118a565b5090565b6111ac91905b808211156111a8576000816000905550600101611190565b5090565b9056fea165627a7a723058202b6b18be0fad0eac5e3a6e9f5f77577122dfbbce2c9277cb6742d47a89f3b4bb0029",
  "source": "// SPDX-License-Identifier: MIT\npragma solidity ^0.5.0;\n\ncontract EventManagement {\n    // website owner public address\n    address payable serviceProviderWallet = 0x02BEB021529d9C4FE227111EBc56E96d26C10060;\n\n    // percentage cut given to service provider\n    uint serviceCutPercentage = 20; // 20% cut given to middleman\n\n    // counter to keep track of total events\n    uint256 totalEvents = 0;\n\n    // Struct to represent event information\n    struct Event {\n        uint256 id;\n        string img_url;\n        string title;\n        string description;\n        bool is_active;\n        uint256 ticket_price;\n        address payable organizer; // Organizer's wallet address\n    }\n\n    // Mapping to store events by their ID\n    mapping(uint256 => Event) public events;\n\n    // Event to notify when a new event is added\n    event EventAdded(uint256 eventId);\n    \n    // Event to notify when any event is updated\n    event EventUpdated(uint256 eventId);\n\n    // Event to notify when the service provider gets his cut\n    event EventCutGivenToServiceProvider(uint256 eventId, uint256 amount);\n\n    // Event to notify when a payment is received\n    event PaymentReceived(uint256 eventId, address payer, uint256 amount);\n\n    // Function to add a new event\n    function addEvent(\n        uint256 _id,\n        string calldata _img_url,\n        string calldata _title,\n        string calldata _description,\n        bool _is_active,\n        uint256 _ticket_price,\n        address payable _organizer\n    ) external {\n        Event storage newEvent = events[_id];\n        newEvent.id = _id;\n        newEvent.img_url = _img_url;\n        newEvent.title = _title;\n        newEvent.description = _description;\n        newEvent.is_active = _is_active;\n        newEvent.ticket_price = _ticket_price;\n        newEvent.organizer = _organizer;\n\n        totalEvents++;\n\n        emit EventAdded(_id);\n    }\n\n    // get latest event id\n    function getLatestEventId()\n        external\n        view\n        returns (\n            uint256 _id\n        )\n    {\n        return totalEvents+1;\n    }\n\n    // get next available event id\n    function getNextAvailableEventId()\n        external\n        view\n        returns (\n            uint256 _id\n        )\n    {\n        return totalEvents + 1;\n    }\n\n    // Function to get event details by ID\n    function getEventDetails(uint256 _id)\n        external\n        view\n        returns (\n            string memory img_url,\n            string memory title,\n            string memory description,\n            bool is_active,\n            uint256 ticket_price,\n            address payable organizer\n        )\n    {\n        Event storage queriedEvent = events[_id];\n        return (\n            queriedEvent.img_url,\n            queriedEvent.title,\n            queriedEvent.description,\n            queriedEvent.is_active,\n            queriedEvent.ticket_price,\n            queriedEvent.organizer\n        );\n    }\n\n    // Function to update event details\n    function updateEvent(\n        uint256 _id,\n        string calldata _img_url,\n        string calldata _title,\n        string calldata _description,\n        bool _is_active,\n        uint256 _ticket_price\n    ) external {\n        Event storage updatedEvent = events[_id];\n        updatedEvent.img_url = _img_url;\n        updatedEvent.title = _title;\n        updatedEvent.description = _description;\n        updatedEvent.is_active = _is_active;\n        updatedEvent.ticket_price = _ticket_price;\n\n        emit EventUpdated(_id);\n    }\n\n    // Function to allow users to pay for a specific event\n    function payForEvent(uint256 _eventId) external payable {\n        Event storage paidEvent = events[_eventId];\n        require(paidEvent.is_active, \"Event is not active\");\n        require(msg.value == paidEvent.ticket_price, \"Incorrect payment amount\");\n\n        // calculate the percentage share on the submitted amount\n        uint256 organizerCut = calculateOrganizerFee(msg.value);\n        uint256 serviceProviderCut = calculateMiddlemanFee(msg.value);\n\n        // Transfer funds to the organizer\n        paidEvent.organizer.transfer(organizerCut);\n\n        // Emit event to notify payment received\n        emit PaymentReceived(_eventId, paidEvent.organizer, organizerCut);\n\n        // Transfer funds to the service provider\n        serviceProviderWallet.transfer(serviceProviderCut);\n\n        // create an event for giving service provider his cut\n        emit EventCutGivenToServiceProvider(_eventId, serviceProviderCut);\n\n    }\n\n    // ============== helpers =====================\n\n    // calculates middle man's fee\n    function calculateMiddlemanFee(uint payment_amount) internal  \n        view \n        returns (uint) \n    {\n        return payment_amount / (100 / serviceCutPercentage);\n    }\n\n    // calculate event organizer's fee\n    function calculateOrganizerFee(uint payment_amount) internal  \n        view \n        returns (uint) \n    {\n        uint middlemanFee = calculateMiddlemanFee(payment_amount);\n        return payment_amount - middlemanFee;\n    }\n}\n",
  "sourcePath": "/externalvolumes/Projects/blockchain research/ticketing-system-03/contracts/EventManagement.sol",
  "compiler": {
    "name": "solc",
    "version": "0.5.0+commit.1d4f565a.Emscripten.clang"
  },
  "schemaVersion": "3.0.1",
  "updatedAt": "2023-11-16T06:49:33.266Z",
  "devdoc": {
    "methods": {}
  },
  "userdoc": {
    "methods": {}
  }
}